:020000040800F2
:10000000684C0020F1020008C12F0008B928000840
:10001000A12F0008CB070008914200080000000053
:100020000000000000000000000000003102000895
:1000300095080008000000008D020008393A000809
:100040000B0300080B0300080B0300080B03000858
:100050000B0300080B0300080B0300080B03000848
:100060000B0300080B0300080B0300080B03000838
:10007000CD0700080B0300080B0300080B03000862
:100080000B0300080B0300080B0300080B03000818
:100090000B0300080B0300080B0300080B03000808
:1000A0000B030008093B00080B0300080B030008C2
:1000B0000B0300080B0300080B0300080B030008E8
:1000C0000B0300080B0300080B0300080B030008D8
:1000D0000B030008294200080B0300083542000802
:1000E0000B0300080B0300080B0300080B030008B8
:1000F0000B0300080B0300080B0300080B030008A8
:100100000B0300080B0300080B0300080B03000897
:100110000B0300080B030008153B00080B03000845
:100120000B0300080B030008D90700080B030008A5
:100130000B0300080B0300080B0300080B03000867
:100140000B0300080B0300080B0300080B03000857
:100150000B0300080B030008E50700080B03000869
:100160000B0300080B0300080B0300080B03000837
:100170000B0300080B0300080B030008000000003D
:100180000B0300080B03000800F002F800F041F830
:100190000AA090E8000C82448344AAF10107DA45E2
:1001A00001D100F036F8AFF2090EBAE80F0013F0F3
:1001B000010F18BFFB1A43F001031847286600001F
:1001C00048660000103A24BF78C878C1FAD85207B0
:1001D00024BF30C830C144BF04680C6070470000C1
:1001E0000023002400250026103A28BF78C1FBD840
:1001F000520728BF30C148BF0B607047642900F028
:100200005781002070471FB505F0BBFE1FBD10B51C
:1002100010BD00F0A5FA1146FFF7F5FF04F050F805
:1002200000F0C3FA03B4FFF7F2FF03BC00F0C6FA14
:100230002C4B19680868B0E8F04F80F30988BFF3C9
:100240006F8F4FF0000080F31188704700000000AE
:1002500008480068006880F308884FF0000080F3C9
:10026000148862B661B6BFF34F8FBFF36F8F00DFA4
:1002700000BF00BF08ED00E0DFF80C00016841F4AA
:1002800070010160704700BF88ED00E0EFF3098066
:10029000BFF36F8F134B1A681EF0100F08BF20EDCD
:1002A000108A20E9F04F106009B44FF0500080F33D
:1002B0001188BFF34F8FBFF36F8F04F0B3FD4FF082
:1002C000000080F3118809BC19680868B0E8F04F95
:1002D0001EF0100F08BFB0EC108A80F30988BFF33E
:1002E0006F8F704760000020EFF3058070470000BB
:1002F0000948804709480047FEE7FEE7FEE7FEE7BA
:10030000FEE7FEE7FEE7FEE7FEE7FEE704480549F5
:10031000054A064B70470000F93A000889010008B9
:1003200068460020684C002068480020684800208B
:1003300053EA020C00F069802DE9F04B4FF0000603
:10034000002B1FBFB3FA83F503FA05F424FA05F670
:100350005E4012BF1643B2FA82F502FA05F4C5F107
:1003600020051EBF22FA05FC44EA0C04203556EA9B
:10037000044C4FEA144418BF641C4FF000084FF0BF
:100380000009904271EB030C39D3002919BFB1FA6F
:1003900081F701FA07F6B0FA80F700FA07F6C7F11D
:1003A00020071EBF20FA07FC46EA0C062037B6FBE2
:1003B000F4FCA7EB0507103F07F01F0BCBF120065D
:1003C0000CFA0BFB2CFA06F644BFB3460026202F8E
:1003D000A4BF5E464FF0000B5BEA060C08BF4FF06F
:1003E000010B19EB0B09ABFB027C48EB0608C01BA9
:1003F00006FB02CC0BFB03CC71EB0C01C1E70B46F7
:10040000024641464846BDE8F08B13B54FF0000068
:100410004FF00001AFF30080BDE81C4070470000C2
:100420000FB41CB5074B06AA7B446946009005989B
:1004300000F079F90020694600F088F91CBC5DF8ED
:1004400014FB0000210300002DE9F0410E46044694
:10045000002020622046E168884730B3252805D077
:10046000D4E901219047206A401CF2E7E168204668
:1004700000278847050018D0A5F14100192802D8A7
:1004800020354FF400673246294620462760FFF7A3
:10049000B5FE40B1012804D0F61D26F00706083647
:1004A000D8E7361DD6E72846DAE7206ABDE8F081AE
:1004B0002DE9F0410646002410687529314616A53D
:1004C00010D0AFF30080002802DA404213A507E005
:1004D00031688A0701D512A502E0490704D511A5A4
:1004E000012401E0AFF3008000210A2206F1240775
:1004F00009E0B0FBF2FCB0FBF2F302FB1C00303071
:1005000078541846491C0028F3D123462A46304621
:10051000BDE8F04100F0A9B8000000002D00000087
:100520002B00000020000000032A40F2308010F071
:10053000030C00F0158011F8013BBCF1020F62447E
:1005400098BF11F801CB00F8013B38BF11F8013B0F
:10055000A2F1040298BF00F801CB38BF00F8013BBC
:1005600011F0030300F02580083AC0F0088051F82C
:10057000043B083A51F804CBA0E80810F5E7121D37
:100580005CBF51F8043B40F8043BAFF30080D20756
:1005900024BF11F8013B11F801CB48BF11F8012B22
:1005A00024BF00F8013B00F801CB48BF00F8012B45
:1005B000704710B5203AC0F00B80B1E81850203ACF
:1005C000A0E81850B1E81850A0E81850BFF4F5AFF3
:1005D0005FEA027C24BFB1E81850A0E8185044BF7D
:1005E00018C918C0BDE810405FEA827C24BF51F8EA
:1005F000043B40F8043B08BF7047D20728BF31F8DE
:10060000023B48BF11F8012B28BF20F8023B48BF2E
:1006100000F8012B70474FF0000200B513469446D6
:100620009646203922BFA0E80C50A0E80C50B1F14A
:100630002001BFF4F7AF090728BFA0E80C5048BF5E
:100640000CC05DF804EB890028BF40F8042B08BFFC
:10065000704748BF20F8022B11F0804F18BF00F8F8
:10066000012B70477047704770472DE9F0470D46E2
:1006700099469246044600F124080168880604D58C
:10068000E06921F01001216000E00120A84201DDB5
:10069000471B00E00027A1697A1902EB0900081A3C
:1006A000A0612078C00602D42046AFF30080002667
:1006B00008E0D4E901211AF806009047206A401C9E
:1006C000761C20624E45F4DB2078C0060AD5204611
:1006D000AFF3008006E0D4E9012130209047206A82
:1006E000401C2062381EA7F10107F4DC07E0D4E9C2
:1006F000012118F805009047206A401C2062281E3E
:10070000A5F10105F3DC2046AFF300802078000658
:1007100002D50220BDE8F0870120FBE701694A1CF1
:1007200002610878704700B58FB0CDE90131002132
:10073000059105497944CDE9031011466846FFF754
:1007400083FE0FB000BD0000E5FFFFFF0A6802F85E
:10075000010B0A6070470000004870470446002003
:100760007546FFF7F9FFAE4605006946534620F08F
:100770000700854618B020B5FFF7C8FDBDE820404A
:100780004FF000064FF000074FF000084FF0000B4D
:1007900021F00701AC46ACE8C009ACE8C009ACE800
:1007A000C009ACE8C0098D46704710B50446AFF3E8
:1007B00000802046BDE81040FFF734BD01491820F5
:1007C000ABBEFEE7260002007047FEE7014800F0DE
:1007D000C3B800006C080020014800F0BDB800005C
:1007E000AC070020014800F0B7B800000C0800205A
:1007F00001681823CAB2103AB2FBF3F2054B6FF34B
:100800000901032A9B5CC36500D9091D816508465F
:10081000704700005C60000810B5014600208B693D
:100820008A6A4FF0C07453B1B3F5005F15D072B14E
:10083000012A0CD0022A0AD0032A09D104E01AB1F5
:10084000012A06D0022A03D1C96AC90100D50120B4
:1008500010BDC96AA142FAD010BD002AF7D0012A02
:10086000F2D0022AF3D0032AF3D010BD30B50468C9
:10087000256825F480252560046863608368402B23
:10088000036803D099600068C26030BD9A60006858
:10089000C16030BD7047002101604160704772B691
:1008A000FEE72DE9F0410446876D00F0DBFA0646CD
:1008B00094F835000025022806D08020606584F871
:1008C00034500120BDE8F0812068016821F0160154
:1008D00001602068416921F080014161206C08B904
:1008E000A06C20B12068016821F008010160206837
:1008F000016821F0010101600CE000F0B3FA801BF7
:10090000052807D920206065032084F8350084F885
:100910003450D7E720680068C007EED194F85C1027
:100920003F208840B860012084F8350084F83450B6
:100930000020C7E790F83510022903D080214165D7
:1009400001207047052180F835100068016821F00A
:1009500001010160002070472DE9F84304464FF083
:100960000009CDF8009063484FF41651A56D00685A
:10097000B0FBF1F72E6894F85C10082000FA01F142
:1009800031420FD021680A6852070BD50A6822F05D
:1009900004020A6094F85C108840A860606D40F022
:1009A0000100606594F85C104FF0010808FA01F04E
:1009B000304208D021684969090604D5A860606DF5
:1009C00040F00200606594F85C10042088403042DA
:1009D00008D021680968890704D5A860606D40F0D7
:1009E0000400606594F85C1010208840304218D0F4
:1009F00021680968090714D5A860206801684903BF
:100A000004D50068000308D5A16C07E00168C9059A
:100A100003D4016821F008010160216C09B120466E
:100A2000884794F85C1020208840304231D02168FB
:100A30000968C9062DD5A86094F8350005282068F6
:100A4000016806D0490347D5006800031DD4616CD6
:100A50001CE021F0160101602068416921F080014D
:100A60004161206C08B9A06C20B12068016821F0B8
:100A70000801016094F85C103F208840A86084F869
:100A8000358084F83490216D1FE0E16B09B1204678
:100A90008847606D00282BD0606DC00714D00520FA
:100AA00084F835002068016821F001010160009898
:100AB000401C0090B84203D820680068C007F6D1F7
:100AC00084F8358084F83490E16C002910D001B0AE
:100AD0002046BDE8F04308470168C905D5D4016840
:100AE00021F01001016084F8358084F83490CCE75F
:100AF000BDE8F8835C0000202DE9F041044600F0D9
:100B0000B1F906465CB1022084F83500002584F86E
:100B100034502068016821F0010101600DE00120DE
:100B2000BDE8F08100F09EF9801B052805D9202042
:100B30006065032084F83500F2E720680068C0078C
:100B4000F0D12268116820480140D4E9010318431C
:100B5000D4E903363343184363691843A369184340
:100B6000E3691843236A18430843616A042903D1DF
:100B7000D4E90B1319430843106020684069666A82
:100B800020F0070130460E43012704280CD1A06A4B
:100B90000643E06A40B12046FFF73EFE20B1402008
:100BA000606584F83570BAE7206846612046FFF733
:100BB0001FFE94F85C203F2191408160656584F8B8
:100BC00035700020ACE700003F8010F02DE9F041C7
:100BD0000446866D90F83400002501280DD00120D0
:100BE00084F8340094F835700020012F07D084F881
:100BF000340002252846BDE8F0810220FBE70227E9
:100C000084F8357060652046FFF730FE94F85C107C
:100C10003F208840B0602068016841F01601016003
:100C2000206C20B12068016841F008010160206853
:100C3000016841F001010160DCE7000070B5044685
:100C400000F010F90546601C02D004480078044406
:100C500000F008F9401BA042FAD370BD50000020FC
:100C60002DE9F84FDFF8BCA1002201250AF1040BA1
:100C700003264FF00F090BF1040E00BF0B6805FAB5
:100C800002F42340A34270D10F7907F00307012F2C
:100C900001D0022F16D187684FEA420806FA08FCF5
:100CA00027EA0C07D1F80CC00CFA08FC4CEA070C38
:100CB000C0F808C04768A7430C79C4F300149440F7
:100CC0003C4344600C79E443A4070AD0C4684FEA6B
:100CD000420C06FA0CF7BC438F6807FA0CF727435F
:100CE000C7600C7904F00304022C12D1D40800EB85
:100CF000840CDCF820405707FF0E09FA07F824EAB5
:100D00000804D1F8108008FA07F848EA0408CCF87B
:100D1000208004684FEA420C06FA0CF7BC430F79B6
:100D200007F0030707FA0CF7274307604C6814F431
:100D3000403F70D03C4C276847F4804727602468C8
:100D400022F0030704F480440094384C07EB040CB1
:100D5000DCF8084897074FEA177809FA08F7BC4308
:100D6000334FB84202D1002724E054E0314FB8425B
:100D700001D101271EE0304FB84201D1022719E00E
:100D80002E4FB84201D1032714E02D4FB84201D1B4
:100D900004270FE02B4FB84201D105270AE02A4F64
:100DA000B84201D1062705E0284FB84201D10727F4
:100DB00000E0082707FA08F72743CCF80878DAF8A4
:100DC00000405746D1F804C09C435FEACC3C00D5B4
:100DD0001C433C60DBF800405F46D1F804C09C43F4
:100DE0005FEA8C3C00D51C433C60DEF8004077464F
:100DF000D1F804C09C435FEACC2C00D51C433C6076
:100E0000084F0C373C68D1F804C09C435FEA8C2C37
:100E100000D51C433C60521C102AFFF42FAFBDE8E4
:100E2000F88F0000003C014044380240003001408F
:100E3000000002400004024000080240000C024092
:100E4000001002400014024000180240001C024042
:100E50000069084000D0012070470AB181617047E5
:100E60000904FBE70148806870470000500000203B
:100E700070B5040025D094F83D00002520B984F811
:100E80003C50204600F0B8F8242084F83D0020684B
:100E9000016821F0010101602068016841F400410E
:100EA00001602068016821F40041016000F04CFA03
:100EB0004D4A6168914201D84C4900E04C49884252
:100EC00001D2012070BD4B492368B0FBF1F15E688F
:100ED00026F03F060E435E606368934206D94FF4E6
:100EE000967359434FF47A73B1FBF3F12368491CAD
:100EF0001E6A26F03F06314319626168914210D89C
:100F00004900401EB0FBF1F2521CC2F30B02042A4E
:100F100001D2042022E0B0FBF1F0401CC0F30B0032
:100F20001CE0A268F2B301EBC10303EB0116431E00
:100F3000B3FBF6F35B1C43F480431B0549D092B32B
:100F400001EBC10202EB0111401EB0FBF1F0401CAD
:100F5000C0F30B0040F4804040F400402168CA69AF
:100F60004CF6FF739A431043C861D4E9071001435C
:100F70002068026822F0C00211430160D4E9030135
:100F800001432068826848F2FF339A43114381602D
:100F9000D4E9050108432168CA6822F0FF02104322
:100FA000C86001E00EE016E02068016841F0010130
:100FB00001602564202084F83D00256384F83E50BC
:100FC000002070BD01EB4106431EB3FBF6F35B1C32
:100FD000B3E70120C2E701EB4101401EB0FBF1F095
:100FE000401CC0F30B00B7E7A086010080841E0000
:100FF00000093D0040420F0010B586B004461421A0
:101000006846FFF708FB14492068884221D113483D
:101010000021026842F002020260006800F0020053
:1010200005904FF4407000901220CDE9010103209B
:1010300003900420049069460948FFF711FE074811
:101040001030016841F400110160006800F40010E4
:10105000059006B010BD000000540040303802403A
:1010600000040240024881680278114481607047A0
:10107000500000200B4810B5016841F40071016078
:10108000016841F480610160016841F48071016090
:10109000032000F08DF80F2000F006F800F03EF875
:1010A000002010BD003C024010B5014688B000226F
:1010B000192000F05DF8192000F04CF813480024C6
:1010C000016841F001010160006805A900F001001C
:1010D0000690684600F018F900F046F90C49400007
:1010E000B0FBF1F10C480B4A491E026040F2E732B6
:1010F000C0E90324C0E9011400F0E6FC10B10120AE
:1011000008B010BD044800F03FFDF9E74438024044
:1011100040420F0000000140CC0800200C4882B083
:10112000016841F480410160006800F48040009053
:101130000748001F016841F08051016000680022EB
:1011400000F0805000900F21901E02B000F010B807
:1011500044380240002809DB00F01F0201219140C1
:101160004009800000F1E020C0F800117047000045
:10117000F0B40E4B1B680C46C3F30223C3F1070502
:10118000042D00D90425191D072901D2002300E0F0
:10119000DB1E012606FA05F1491E214099409E40BA
:1011A000761E16403143F0BC03F073B80CED00E03E
:1011B000064900F0070208684FF6FF03184040EAAE
:1011C0000220034A10430860704700000CED00E065
:1011D0000000FA052DE9F0470E46050065D0DFF85E
:1011E0001481D8F80000F7B200F00700B04207D22F
:1011F00088F80070D8F8000000F00700B04254D121
:1012000028683D4C810712D5400703D5206840F47B
:10121000E05020602878000703D5206840F4604043
:1012200020602068A96820F0F0000843206028783A
:10123000C0072DD0304968680839012812D002282B
:1012400013D0032811D00968890700292DDA2168F5
:1012500021F0030101432160FFF704FE814641F2C2
:10126000883A0EE009688903EFE709688901ECE72D
:10127000FFF7F8FDA0EB0901514502D90320BDE8B5
:10128000F0872068696800F00C00B0EB810FEFD1A7
:10129000D8F80010404601F00701B14207D90770A5
:1012A000006800F00700B04201D00120E7E728788D
:1012B000400705D52068E96820F4E0500843206025
:1012C0002878000706D52068296920F4604040EAA4
:1012D000C100206000F058F82168084AC1F30311EA
:1012E000515CC8400649086006480068FFF7DCFE0C
:1012F0000020C4E7003C0240083802406460000857
:101300005C000020540000200F2202600C4A136889
:1013100003F003034360136803F0F0038360136872
:1013200003F4E053C36012684FF4E05303EAD202BF
:1013300002610448006800F0070008607047000080
:1013400008380240003C024004480549006809682A
:10135000044AC1F38221515CC84070475C00002000
:1013600008380240746000080448054900680968AC
:10137000044AC1F34231515CC84070475C00002010
:101380000838024074600008154810B5006810F075
:101390000C02144813D04110042A0FD0082A0ED191
:1013A0000F4C241F2268236802F03F025B0207D51E
:1013B0002068C0F38810A0FB010106E0084610BDBC
:1013C0002168C1F38811A1FB00010023FEF7B0FFE3
:1013D0002168C1F30141491C4900B0FBF1F010BD87
:1013E000083802400024F4002DE9F84F04006ED0C4
:1013F0002078DFF84C93C007A9F104054AD009F121
:1014000004000168C1F38101012908D00068C0F31C
:10141000810002280AD1D9F80000400206D52868C8
:10142000800337D560680028E1D033E06068B0F50C
:10143000803F10D0B0F5A02F286810D020F4803065
:101440002860286820F4802028606068A8B1FFF731
:1014500009FD06460DE0286840F48030F4E740F4CA
:1014600080202860F7E700BFFFF7FCFC801B6428A2
:1014700073D828688003F7D50CE0FFF7F3FC064625
:1014800005E000BFFFF7EEFC801B6428F0D8286859
:101490008003F7D42078DFF8AC8280074FF0000A91
:1014A0003ED5A748001D016811F00C0F08D0006858
:1014B000C0F3810002280BD1D9F80000400207D404
:1014C0002868800716D5E068012800D112E033E1D2
:1014D000E068B8B10120C8F80000FFF7C3FC064679
:1014E00005E000BFFFF7BEFC801B0228C0D82868BB
:1014F0008007F7D52868216920F0F80040EAC1008C
:1015000028600DE0C8F800A0FFF7ACFC064604E038
:10151000FFF7A8FC801B02281FD828688007F7D493
:101520002078000722D5864F87486169703771B1EE
:1015300001210160FFF796FC064604E0FFF792FCEC
:10154000801B022809D838688007F7D50EE0C0F85C
:1015500000A0FFF787FC064605E082E0FFF782FC6B
:10156000801B02287DD838688007F7D42078400790
:1015700068D5DFF8CCB100270BF13C0BDBF800009D
:10158000C0000BD4DBF8001041F08051CBF8001004
:10159000DBF80000012700F0805000906B4E3068AF
:1015A000C00510D4306840F480703060FFF75AFCFA
:1015B000009005E0FFF756FC0099401A022850D829
:1015C0003068C005F6D55E4EA0686C3601280FD095
:1015D0000528306810D020F001003060306820F01D
:1015E00004003060A068B8B1FFF73CFC00900FE049
:1015F000306840F00100F4E740F004003060F7E7A5
:10160000FFF730FC0099411A41F28830814266D8D8
:1016100030688007F4D50EE0FFF724FC009007E067
:10162000FFF720FC0099411A41F28830814256D8D8
:1016300030688007F4D42FB1DBF8001021F080511E
:10164000CBF80010A069C8B33D49091D0968C1F372
:10165000810102294AD00228504607D0C8F860000C
:1016600000E03CE0FFF7FEFB04463BE04746C8F8DD
:101670006000FFF7F7FB064605E000BFFFF7F2FB4F
:10168000801B02282BD828688001F7D4D4E90701F1
:101690000843A16A2E4A490802EB0141626A41EA05
:1016A0008211084394F82C1040EA0161C9F8001037
:1016B00001203866FFF7D6FB044606E03EE000BF97
:1016C000FFF7D0FB001B022809D828688001F7D556
:1016D00034E000BFFFF7C6FB001B022802D903203D
:1016E000BDE8F88F28688001F4D427E00128F7D0FE
:1016F000D9F80000E26900F4800191421CD1226A0D
:1017000000F03F01914217D147F6C071626A014073
:10171000B1EB821F10D1A26A4FF0FF3300F44031C9
:1017200003EB5202B1EB024F06D194F82C1000F0FB
:101730007060B0EB016F01D00120D1E70020CFE74E
:101740000438024000004742800E474200700040CB
:101750000000FFFF70B5040009D0606A002540B1A9
:1017600025616561A56294F8510040B10CE001204B
:1017700070BD6068B0F5827FF4D0E561F2E784F86F
:101780005050204600F044F8022084F851002068B0
:10179000016821F040010160A088218900F4827075
:1017A00001F404410843A18901F400610843217C4C
:1017B00001F002010843217D01F001010843218B62
:1017C00001F400710843217F01F03801084394F8C7
:1017D000201001F080010843218D01F400510843DD
:1017E00021680860A069042101EA104094F82410DF
:1017F00001F010010843216848602068C16921F4A4
:101800000061C1616565012084F85100002070BD50
:1018100010B586B0044614216846FEF7FCFE134955
:101820002068884220D112480021026842F4805288
:101830000260006800F4805005900D48143802687A
:1018400042F001020260006800F001000590E02013
:1018500000900220CDE901010320039005200490AF
:1018600069460448FFF7FCF906B010BD003001409E
:1018700044380240000002402DE9F84F044690F839
:10188000500000271D461646894601280DD04FF00E
:10189000010B84F850B0FFF7E5FA804694F8510048
:1018A000BA46012804D0022793E00220BDE8F88F51
:1018B000B9F1000F73D0002E71D0032084F85100CD
:1018C000C4F854A0C4F83090A686E686C4F838A0C0
:1018D000A4F83CA0A4F83EA0C4F844A0C4F840A0DA
:1018E000A068B0F5004F09D12068016821F04001DF
:1018F00001602068016841F480410160206801684E
:10190000490603D4016841F040010160E068B0F588
:10191000006F606803D030B3012E24D041E008B1DD
:10192000012E1CD1206B21680088C86006E0206869
:101930008168890709D5216B0988C160206B801CEB
:101940002063E08E401EE08609E0FFF78BFAA0EBF3
:101950000800A84202D3681C01D031E07DB3E08EBC
:101960000028E4D120E0206B21680078087306E0AD
:1019700020688168890709D5216B09780173206B7C
:10198000401C2063E08E401EE0860AE0FFF76AFA02
:10199000A0EB0800A84203D3681C02D010E017E0B7
:1019A0006DB1E08E0028E3D142462946204601F081
:1019B00029FD08B120206065A06818B106E0FFE7A6
:1019C000032706E02068C16880680090606D00B160
:1019D000012784F851B084F850A0384666E7704774
:1019E000704710B590F83C20012A22D0012280F8DF
:1019F0003C20CA688C6822F4407222434C6822F46E
:101A0000806222430C6822F4006222430C6922F4B3
:101A1000805222434C6922F400522243C9690023B8
:101A200022F480420A4301684A6480F83C30002076
:101A300010BD022010BD000070B590F83C20012AB6
:101A400032D0012480F83C40022280F83D20036817
:101A50005A689D6822F070060A6832435A60134B38
:101A600002689A4214D0B2F1804F11D0104B9A42C2
:101A70000ED0104B9A420BD00F4B9A4208D00F4B0E
:101A80009A4205D00E4B9A4202D00E4B9A4204D194
:101A9000496825F080031943916080F83D4000219A
:101AA00080F83C10084670BD022070BD0000014067
:101AB0000004004000080040000C00400004014009
:101AC000004001400018004010B5040003D094F815
:101AD0003D0010B107E0012010BD002084F83C005B
:101AE000204600F01FF8022084F83D00211D2068E8
:101AF00002F016F8012084F8460084F83E0084F8CD
:101B00003F0084F8400084F8410084F8420084F8E3
:101B1000430084F8440084F8450084F83D00002028
:101B200010BD000008B5144A01681448914208D15C
:101B3000016841F002010160006800F002000090BD
:101B400008BD0F4A914211D1016841F010010160B6
:101B50000068002200F01000009005213620FFF7F9
:101B600007FBBDE808403620FFF7F4BA054881427C
:101B7000E6D10248001DDBE7000400404038024087
:101B8000001000400004014090F83D10012901D0F0
:101B900001207047022180F83D100168CA6842F0B8
:101BA0000102CA6000681149884214D0B0F1804F28
:101BB00011D00F4988420ED00E4988420BD00E49F1
:101BC000884208D00D49884205D00D49884202D08C
:101BD0000C49884204D1816801F00701062903D02D
:101BE000016841F0010101600020704700000140E0
:101BF0000004004000080040000C004000040140C8
:101C0000004001400018004070B5044690F83C00C8
:101C10000025012817D0012684F83C60022084F8B2
:101C20003D002068826822F0770222F47F428260C1
:101C30000868502838D00DDC20284FD005DC90B340
:101C4000102811D14AE0022070BD302846D040282B
:101C50000AD13BE060282FD070280DD0B0F5805F0E
:101C600003D0B0F5005F12D0012584F83D6000205C
:101C700084F83C00284670BDCB68D1E9012120687A
:101C800001F0BFFF2068816841F0770109E0CB686F
:101C9000D1E90121206801F0B4FF2068816841F496
:101CA00080418160E1E719E0CA684968206802F074
:101CB0007DF85021206806E0CA684968206802F073
:101CC00086F86021206801F0A6FFCEE7CA6849685F
:101CD000206802F06BF840212068F4E72268014692
:101CE0001046F0E72DE9F0410D46040003D094F8CA
:101CF0003D0018B108E00120BDE8F081002084F823
:101D00003C00204600F040F8022084F83D002068A6
:101D1000816844F2070291438160211D206801F02F
:101D2000FFFE226890689169166A2B68AF690343C9
:101D300040F20330814341EA0721A868EF69084374
:101D40004FF6FC418843E96840EA072001432869CF
:101D50002F6A000140EA0730084369686D6926F080
:101D6000AA0646EA0515294393602268906154F853
:101D7000460B0162012004F81F09E0752076E07629
:101D80002077A0750020B7E770B586B0044614210F
:101D90006846FEF740FC20481E4E256800231E4979
:101DA000103802220124B54216D10D6845F0040511
:101DB0000D60096801F004010591016841F0080116
:101DC00001600068694600F0080005904FF440503B
:101DD0008DE81500114817E0114EB54218D10D6875
:101DE00045F008050D60096801F0080105910168DA
:101DF00041F0010101600068694600F001000590B2
:101E000003208DE815000748CDE90332FEF728FFCF
:101E100006B070BD0008004040380240000C02408F
:101E2000000C00400000024070B590F83E6004468F
:101E300090F83F5090F8423090F84320022021B1B2
:101E400004290ED0012E1BD114E0012E18D1012B34
:101E500016D184F83E0084F8420001220021206857
:101E600020E0012D0CD1012A0AD184F83F0084F82A
:101E7000430014E0012D03D1012B01D1012A01D02F
:101E8000012070BD84F83E0084F83F0084F84200D1
:101E900084F8430001220021206801F0A5FE012200
:101EA0000421206801F0A0FE2068016841F00101D2
:101EB0000160002070BD704770B50446006801697C
:101EC0004FF00005C943890715D4C168C943890784
:101ED00011D4E91E01610120207720688069800704
:101EE000204602D0FFF7E7FF04E000F0DBF82046D1
:101EF00000F06DF9257720680169C943490717D4B7
:101F0000C168C943490713D46FF00401016102207D
:101F100020772068806910F4407F204602D0FFF7C8
:101F2000CAFF04E000F0BEF8204600F050F9257723
:101F300020680169C943090716D4C168C943090764
:101F400012D46FF008010161042020772068C06975
:101F50008007204602D0FFF7AEFF04E000F0A2F8B1
:101F6000204600F034F9257720680169C943C90685
:101F700017D4C168C943C90613D46FF010010161B9
:101F8000082020772068C06910F4407F204602D0E6
:101F9000FFF791FF04E000F085F8204600F017F904
:101FA000257720680169C943C90708D1C168C943B9
:101FB000C90704D1891E0161204600F06DF920682F
:101FC0000169C943090609D4C168C943090605D492
:101FD0006FF0800101612046FFF701FD2068016973
:101FE000C943490609D4C168C943490605D46FF0FD
:101FF00040010161204600F059F920680169C94398
:1020000089060BD4C168C943890607D46FF0200143
:1020100001612046BDE87040FFF7E2BC70BD0000E2
:1020200030B587B0044614216846FEF7F4FA2468F8
:10203000174D0020174903230222AC420FD10C6830
:1020400044F002040C6009680093CDE9012001F01E
:102050000201CDE90421039069460F4813E00F4DBA
:10206000AC4212D10C6844F004040C600968CDE95C
:10207000022001F0040105914FF47071CDE90012C6
:10208000694604930648FEF7EBFD07B030BD00003B
:1020900000040040303802400004024000040140C7
:1020A00000080240704770B5044690F83C000026D6
:1020B0000D4601280FD0012084F83C006AB1042AA3
:1020C0001DD0082A2FD00C2A3FD00126002084F8EA
:1020D0003C00304670BD022070BD206801F0A4FDB8
:1020E0002068816941F0080181612068816921F0DF
:1020F00004018161206881692A69114311E0206827
:1021000001F0C2FD2068816941F4006181612068AD
:10211000816921F480618161206881692A6941EACD
:1021200002218161D2E7206801F0E4FD2068C169E5
:1021300041F00801C1612068C16921F00401C16159
:102140002068C1692A69114311E0206801F006FE88
:102150002068C16941F40061C1612068C16921F44E
:102160008061C1612068C1692A6941EA0221C161B7
:10217000ACE710B5040003D094F83D0010B107E0BF
:10218000012010BD002084F83C00204600F01EF81D
:10219000022084F83D00211D206801F0C1FC0120CF
:1021A00084F8460084F83E0084F83F0084F840003C
:1021B00084F8410084F8420084F8430084F8440025
:1021C00084F8450084F83D00002010BD704770473A
:1021D00010B50446022249B104290ED0082913D0B3
:1021E00094F84100012816D0012010BD94F83E005B
:1021F0000128F9D184F83E200FE094F83F0001282F
:10220000F2D184F83F2008E094F840000128EBD197
:1022100084F8402001E084F841200122206801F088
:10222000E3FC16492068164A884201D0904203D147
:10223000436C43F4004343642068884213D0B0F1F8
:10224000804F10D00F4988420DD00F4988420AD0E4
:102250000E49884207D0904205D00D49884202D0ED
:102260000C49884204D1816801F00701062903D096
:10227000016841F001010160002010BD0000014033
:10228000000401400004004000080040000C004031
:10229000004001400018004000680349884201D115
:1022A000FEF7E0BE70470000000001407047704735
:1022B00010B504460068406994F83D10C0F3C010A2
:1022C000212911D180B12068143050E8001F21F07D
:1022D000800140E80012002AF5D1606B08B1FEF7DA
:1022E000E0FA204601F027FE2068406994F83E108D
:1022F000C0F38010222911D180B12068143050E839
:10230000001F21F0400140E80012002AF5D1A06B27
:1023100008B1FEF7C6FA204601F0E6FD002010BD28
:1023200070470000F8B5016804460868CA684B6940
:1023300010F00F0F4FF0000559D003F0010602F422
:102340009077374365D0C10705D0D10503D5216CFF
:1023500041F001012164410705D5D90703D0216C63
:1023600041F002012164810705D5D90703D0216C12
:1023700041F004012164010707D502F02001314337
:1023800003D0216C41F008012164216C00293AD06E
:10239000800604D5900602D5204601F0DAFD2068BB
:1023A0004069216CC0F38010090700D460B3204657
:1023B00001F09AFD20684069400621D5206814305C
:1023C00050E8001F21F0400140E80012002AF5D13A
:1023D000A06BA8B16C490165A06BFEF7ABFA0028B1
:1023E00011D0A06B016D01B0BDE8F0400847830635
:1023F0000FD593060DD52046BDE8F84001F0A9BDE4
:102400002046FFF78DFFF8BD2046FFF789FF2564C2
:10241000F8BD266B2023012E79D1C60677D5D606C6
:1024200075D50868486800904869400640D5A16B9A
:10243000086840680004000CEAD0A28D8242E7D907
:10244000E085C869B0F5807F2DD020680C3050E859
:10245000001F21F4807140E80012002AF5D12068A5
:10246000143050E8001F21F0010140E80012002A5A
:10247000F5D12068143050E8001F21F0400140E8F9
:102480000012002AF5D184F83E30256320680C3014
:1024900050E8001F21F0100140E80012002AF5D199
:1024A000A06BFEF7FEF9A08DE18D401A81B229E004
:1024B000A08DE18D401A81B2E08D0028A8D00029BE
:1024C000A6D020680C3050E8002F22F4907240E82B
:1024D0000026002EF5D12068143050E8002F22F09D
:1024E000010240E80026002EF5D184F83E30256335
:1024F00020680C3050E8002F22F0100240E8002342
:10250000002BF5D12046FFF7D2FEF8BDFFE7050608
:102510002BD5150629D594F83D002128F5D1A068C2
:10252000B0F5805F01D12069B0B1206A411C216201
:10253000216800784860E08C401E0004000CE084B4
:10254000E3D12068C16821F08001C1602068C168C2
:1025500041F04001C160D8E7206A0088C0F308005C
:102560004860206A801C2062E5E74006CDD5500611
:10257000CBD5CA68204622F04002CA6084F83D30BC
:1025800000F06EF9C1E70000F33D000870B50400EB
:1025900004D094F83D00002510B106E0012070BD84
:1025A00084F83C50204600F023F8242084F83D00B5
:1025B0002068C16821F40051C160204601F02AFD65
:1025C0002068016921F4904101612068416921F08E
:1025D0002A0141612068C16841F40051C16025644D
:1025E000202084F83D0084F83E00002070BD0000EB
:1025F0002DE9F04F87B0064614216846FEF70BF828
:102600005748DFF858C13368022203250721002408
:1026100007154FF0006A63455ED1514B1433D3F870
:1026200000C04CF0100CC3F800C01B6803F010038E
:102630000593036843F0010303600068894600F0D6
:10264000010005901002CDE9000202ABDFF814B1E1
:1026500083E83002904669465846FEF701FB02AB1C
:10266000012083E82102CDE9007869465846FEF74B
:10267000F7FA3E4D3C48D0462860C5E901A4C5E9BB
:1026800003476C61AC61EC612C6228466C62FEF71A
:1026900033FA08B1FEF703F9B563AE63334D324840
:1026A00060357830E5E80208402091C52F4845F8AC
:1026B00014496030AC61EC612C626C62FEF71CFA6C
:1026C00008B1FEF7ECF87563002205212520AE6302
:1026D000FEF74EFD25203CE0DFF894C063453AD17B
:1026E0001F4B1033D3F800C04CF4802CC3F800C04B
:1026F0001B6803F480230593036843F00803036019
:10270000006800F008000590CDE903514FF44070D7
:102710008DE8150069461748FEF7A2FA134D1648D2
:10272000C0352860C5E901A4C5E903476C61AC6107
:10273000EC612C6228466C62FEF7DEF908B1FEF708
:10274000AEF8B563002205212720AE63FEF710FD29
:102750002720FEF7FFFC07B0BDE8F08F0010014016
:10276000303802400000024040640240AC070020C4
:1027700000480040000C02402860024090F83E30C3
:10278000202B0ED159B152B190F83C30012B08D01A
:10279000012380F83C300023036301F0C1BC012019
:1027A0007047022070477047704700002DE9F843DA
:1027B000044690F83D001F4616460D4620284CD191
:1027C000C5B1BEB194F83C00012846D0012084F880
:1027D0003C004FF00008C4F84080212084F83D0000
:1027E000FEF740FBA6848146E684A068B0F5805FD2
:1027F00003D004E00120BDE8F883206928B12E460B
:102800005FF0000584F83C800EE00026FAE78021A6
:10281000204601F0CDFCA0B9AEB116F8010B21683D
:102820004860E08C401EE084E08C4B464FF0000294
:1028300000970028EBD14FF04001204601F0B8FC92
:1028400030B10320D7E735F8020BC0F30800E6E704
:10285000202084F83D000020CDE70220CBE70000D7
:102860000068104988421CD10F48104A01684FF097
:102870000060914202D90D494C3904E00C4A914262
:1028800003D90A495039086008E0094B084A603BFF
:10289000B83A994201D9D06000E090600548FFF74E
:1028A00007BD7047001001400C080020586402402A
:1028B000B860024024070020FEE7000070B5344CE9
:1028C000002501212046FEF7C3FA324E88B10221CD
:1028D0002046FEF7BDFA60B104212046FEF7B8FAA3
:1028E00038B108212046FEF7B3FA10B1012030704C
:1028F0004CE03078F0B301212046FEF7A9FA70B120
:1029000002212046FEF7A4FA48B104212046FEF732
:102910009FFA20B108212046FEF79AFA50BB0A2000
:1029200001F02EFD01212046FEF792FA70B102213E
:102930002046FEF78DFA48B104212046FEF788FABA
:1029400020B108212046FEF783FA98B900203070A4
:1029500001212046FEF77CFA88B102212046FEF7CD
:1029600077FA70B104212046FEF772FA58B10821B7
:10297000204600E00AE0FEF76BFA30B106E00125E0
:1029800004E0022502E0032500E00425284670BD8E
:1029900000080240C8000020B4EEE00AF1EE10FA90
:1029A00001DDB0EE600AB4EEC10AF1EE10FA01D218
:1029B000B0EE410A70470000154808B5016841F4BF
:1029C00080010160016801F480010091016841F417
:1029D000001101600068002200F400100090052141
:1029E0000C20FEF7C5FB0C20FEF7B4FB00220521EE
:1029F0003A20FEF7BDFB3A20FEF7ACFB0022052192
:102A00004620FEF7B5FBBDE808404620FEF7A2BB16
:102A10003038024030B5B5B03E4800F03BFC3D4890
:102A2000303000F037FC3B48603000F0BDFC3948E6
:102A3000903000F05DFC3748C03000F087FC36482D
:102A400000F0B0FA34480830FDF725FF0025319535
:102A5000012131A8329501F0A2FC2F4C0121403C0C
:102A6000A063339533A8349501F099FCE0636421A9
:102A7000A06B01F0DBFC1C2228496846FDF799FD9C
:102A80000021684601F008FD2449E0611C221C3148
:102A900007A8FDF78EFD002107A801F0FDFC1F49E6
:102AA00020621C2238310EA8FDF783FD00210EA8FC
:102AB00001F0F2FC194960621C22543115A8FDF79F
:102AC00078FD002115A801F0E7FC1449A0621C2242
:102AD00070311CA8FDF76DFD00211CA801F0DCFC85
:102AE0000E49E0621C228C3123A8FDF762FD002113
:102AF00023A801F0D1FC094920631C22A8312AA88F
:102B0000FDF757FD00212AA801F0C6FC606335B02F
:102B100030BD0000CC00002040000020985F00087D
:102B20002DE9F04387B014216846FDF774FD2B486A
:102B30000024016841F080010160016801F080011A
:102B40000591016841F004010160016801F0040190
:102B50000591016841F001010160016801F0010186
:102B60000591016841F002010160016801F0020174
:102B70000591016841F0080101600068DFF860809C
:102B800000F00800059001221C214046FEF765F97F
:102B9000DFF850904FF4E047002239464846FEF7F0
:102BA0005CF90F2001258DE8310069460E48FEF7DB
:102BB00057F81C200226CDE90005CDE902466946FA
:102BC0004046FEF74DF8CDE90264CDE9007569464F
:102BD0004846FEF745F807B0BDE8F08330380240BC
:102BE0000000024000040240000802400D4810B5F9
:102BF0000B4901600C49416000214FF48042816023
:102C0000C0E9031241618161C1610162FEF730F9DF
:102C1000002803D0BDE81040FDF741BE10BD000004
:102C20000054004010050020801A0600104810B51E
:102C30000E4901604FF48271416000218160C160E2
:102C40004FF400720161C0E905121822C0E90721A2
:102C5000416281620A21C162FEF77CFD002803D037
:102C6000BDE81040FDF71BBE10BD00000030014064
:102C70006405002010B58EB00024079408940994D0
:102C80000A940B941C2168460C94FDF7C4FC22485E
:102C9000204901603721C0E9011447F22F51C0E9F2
:102CA00003148461FEF710FF08B1FDF7F8FD4FF43F
:102CB0008050079007A91848FEF7A6FF08B1FDF756
:102CC000EEFD1548FFF755FA08B1FDF7E8FD0B9446
:102CD0000BA911480C94FEF7AFFE08B1FDF7DFFD1C
:102CE0006020CDE900040294082269460A48049451
:102CF000FFF7D9F908B1FDF7D2FD0C226946064865
:102D0000FFF7D1F908B1FDF7CAFD0348FFF788F9CD
:102D10000EB010BD00040040BC05002010B58CB002
:102D200024216846FDF777FC0024164809941449CD
:102D30000A94C0E900144FF6FF71C0E90241046132
:102D400084610320CDE900040120CDE9020404944C
:102D5000CDE90540079469460A480894FEF7C2FF8A
:102D600008B1FDF79CFD099409A906480A94FEF7ED
:102D700063FE002801D0FDF792FD0CB010BD0000ED
:102D8000000800400406002010B58CB024216846DD
:102D9000FDF741FC00241548099413490A94C0E941
:102DA0000014611EC0E90241046184610320CDE981
:102DB00000040120CDE902040494CDE90540079404
:102DC00069460A480894FEF78DFF08B1FDF767FDD4
:102DD000099409A905480A94FEF72EFE002801D09F
:102DE000FDF75DFD0CB010BD000C00404C0600204E
:102DF0001CB500240F4800940D4901940160A721DF
:102E0000C0E9011442F20F71C16080218161FEF7B7
:102E10005BFE08B1FDF743FD009469460548019447
:102E2000FEF70AFE002801D0FDF739FD1CBD0000A9
:102E3000001000409406002010B596B000240F94B6
:102E400010941194129413941C2168461494FDF765
:102E5000E2FB202107A8FDF7DEFB34483249016080
:102E60002921C0E9011442F20F71C0E90314446141
:102E70008461FEF729FE08B1FDF711FD4FF4805083
:102E80000F900FA92948FEF7BFFE08B1FDF707FD17
:102E90002648FFF76EF908B1FDF701FD139413A959
:102EA00022481494FEF7C8FD08B1FDF7F8FC602035
:102EB000CDE9000402940394049405940022694629
:102EC0001A480694FFF7EFF808B1FDF7E8FC042272
:102ED00069461648FFF7E7F808B1FDF7E0FC08225D
:102EE00069461248FFF7DFF808B1FDF7D8FC0C225D
:102EF00069460E48FFF7D7F808B1FDF7D0FC0794F4
:102F0000089409944FF400500A94CDE90B4007A9A6
:102F100006480E94FEF765FD08B1FDF7C0FC0348B6
:102F2000FFF77EF816B010BD00040140DC0600205B
:102F30000C4810B50A4901604FF4E13141600021AD
:102F400081600C22C160C0E904128161C161FFF798
:102F50001DFB002803D0BDE81040FDF7A0BC10BD4C
:102F600000100140240700200C4810B50A490160F8
:102F70004FF4E1314160002181600C22C160C0E961
:102F800004128161C161FFF701FB002803D0BDE895
:102F90001040FDF784BC10BD0048004068070020C9
:102FA000FEE700009FED040A80ED000A9FED030A92
:102FB00080ED010A704700000000F04200000000B0
:102FC000FEE770B5002404F1B000C0B2002100F0AB
:102FD00003F90021022000F0FFF80021102000F08A
:102FE000FBF800250121002000F0F6F86D1CEDB281
:102FF000802DF7D3641CE4B2082CE4D370BD00002C
:1030000010B5434C002210212046FDF726FFC820B2
:10301000FDF714FE012210212046FDF71EFF0021BE
:10302000AE2000F0D9F80021022000F0D5F80021F0
:10303000102000F0D1F80021402000F0CDF8002150
:10304000812000F0C9F80021CF2000F0C5F8002150
:10305000A12000F0C1F80021C82000F0BDF8002137
:10306000A62000F0B9F80021A82000F0B5F8002152
:103070003F2000F0B1F80021D32000F0ADF800218E
:10308000084600F0A9F80021D52000F0A5F800219D
:10309000802000F0A1F80021D92000F09DF8002147
:1030A000F12000F099F80021DA2000F095F80021D5
:1030B000122000F091F80021DB2000F08DF80021B3
:1030C000402000F089F80021202000F085F8002140
:1030D000022000F081F800218D2000F07DF8002111
:1030E000142000F079F80021A42000F075F80021E8
:1030F000A62000F071F80021AF2000F06DF800214B
:10310000AF2000F069F8BDE81040FFF75ABF00009B
:103110000000024010B50446B031C8B2002100F0F2
:103120005BF8641CC4F3031040F01000002100F0B1
:1031300053F804F00F00BDE81040002100F04CB837
:103140002DE9F041203A00240D468046D7B27F2871
:1031500003D900208D1C8046EDB22946FFF7DAFF27
:103160000F4E00BF04EB07100121305C00F034F873
:10317000641CE4B2082CF5D36D1CE9B24046FFF79D
:10318000C9FF002404EB071030440121007A00F04D
:1031900023F8641CE4B2082CF4D3BDE8F0810000ED
:1031A0007C6000082DE9F04117460E4604460025D4
:1031B0000CE031462046FFF7C3FF0834E4B2782C18
:1031C00002D90024B61CF6B26D1CEDB27A5D002A5D
:1031D000EFD1BDE8F081000013B5104C09B1012218
:1031E00000E0002204212046FDF737FE00220821DE
:1031F0002046FDF732FE4FF47A73012269460848F3
:10320000FEF73AFB012208212046FDF726FE0122A7
:1032100004212046FDF721FE1CBD000000000240F5
:103220006405002010B504462DED048BB0EE409AE5
:10323000F0EE609A006802F033FE53EC192B02F0B6
:1032400047FC02F06BFB08EE100A51EC190B84ED01
:10325000038A94ED020AD4ED0A0A60EE208AC4EDD6
:10326000058A02F05BFB38EE280AA06284ED060AAC
:10327000D4ED090AB1EE601AFFF78EFB84ED060A61
:1032800010EE100A02F00CFEBDEC048B41EC100BAA
:1032900010BD00009FED110ADFED120A80ED000A5B
:1032A0009FED0F0A80ED010AC0ED020ADFED0E0A64
:1032B000C0ED080ADFED0D0AC0ED090A80ED030A32
:1032C00080ED040A80ED050A80ED060A80ED070A0C
:1032D00080ED0A0A80ED0B0A704700008FC2753E30
:1032E000000000008FC2F53C000096430000C84279
:1032F0009FED110ADFED120A80ED000A9FED0F0A23
:1033000080ED010AC0ED020ADFED0E0AC0ED080AE9
:10331000DFED0D0AC0ED090A80ED030A80ED040A15
:1033200080ED050A80ED060A80ED070A80ED0A0AA5
:1033300080ED0B0A704700003333B33E00000000FD
:10334000CDCC4C3D000096430000C8429FED110AD1
:10335000DFED120A80ED000A9FED0F0A80ED010AF1
:10336000C0ED020ADFED0E0AC0ED080ADFED0D0A1E
:10337000C0ED090A80ED030A80ED040A80ED050A1C
:1033800080ED060A80ED070A80ED0A0A80ED0B0A3F
:10339000704700003333B33E00000000CDCC4C3DFD
:1033A000000096430000C8429FED110ADFED120AAB
:1033B00080ED000A9FED0F0A80ED010AC0ED020AC0
:1033C000DFED0E0AC0ED080ADFED0D0AC0ED090AB7
:1033D00080ED030A80ED040A80ED050A80ED060AFF
:1033E00080ED070A80ED0A0A80ED0B0A70470000A5
:1033F0009A99193E000000000AD7A33C00009643AA
:103400000000C84238B504461248134B0068B0FBB0
:10341000F3F04FF47A73584300906068B0F5827F00
:103420000DD10B46009200228021204600F016F8B4
:1034300070B1606D40F020006065032038BD0098D9
:1034400030B1401E009020688068C0430006F6D569
:10345000002038BD5C00002000366E012DE9F843E5
:103460001E46914688460446089DFDF7FBFC401B1E
:10347000351AFDF7F7FC074625480068C0F3CB3046
:10348000684338E0701C37D0FDF7ECFCC01BA84245
:1034900003D215B1009860B32CE02068416821F098
:1034A000E00141606068B0F5827F0BD1A068B0F5A3
:1034B000004F02D0B0F5806F04D12068016821F080
:1034C00040010160A06AB0F5005F09D12068016881
:1034D00021F4005101602068016841F4005101604D
:1034E000012084F85100002084F850000320BDE83A
:1034F000F8830025401E00902068816838EA0100AA
:1035000004D000214945BDD10020F0E70121F9E7B1
:103510005C00002070B5224C002500BFFFF7CEF9FB
:10352000012806D0022821D0032828D0042832D12F
:1035300021E020891B4900EE100AF8EE400AC4ED94
:10354000050A6089FCEEE00A00EE100A10EE900A0F
:10355000B8EE400A80B284ED060A0860BCEEC00AEC
:10356000091D10EE100A80B2086014E0207980F086
:10357000010020710FE0E078401CE07009E0A079C4
:10358000052806D26423012207A10848FFF70EF997
:1035900001E06570A570012000F0F2FEBEE70000BA
:1035A000000000203C0400403900000068070020B3
:1035B00010B5012000F0E4FEFBE710B50A2000F092
:1035C000DFFEFBE710B5124C88B012A162796846A5
:1035D000FCF726FF6A4602210020FFF7E3FD22796F
:1035E0000FA16846FCF71CFF6A4604210020FFF784
:1035F000D9FDE2780DA16846FCF712FF6A46062164
:103600000020FFF7CFFD642000F0BAFEDDE70000E8
:103610000000002072657365743A256400000000A4
:1036200070617573653A2564000000007461736B06
:103630003A2564002DE9F041AA4E0025A84C371D1B
:103640002DED028B2079012817D060790128FBD05D
:10365000E078012812D0022847D003287AD0042825
:1036600073D0052876D00628FAD007286ED008280F
:103670006DD009286CD00A286BD02CE16078002826
:10368000FBD1A07828B96423012297A19748FFF7BE
:103690008DF820780128F0D1257094ED030AB1EE61
:1036A000400A10EE100A02F0FBFB41EC100B9048B0
:1036B000FFF7B8FDB0EE408AF0EE608A606902F074
:1036C000EFFB53EC182B02F05BF902F027F9606175
:1036D00094ED040AB1EE400A10EE100A02F0E0FB8D
:1036E00041EC100B8248303022E060780028C4D1D1
:1036F000A078002833D1642301227EA130E0257018
:1037000094ED030AB1EE400A10EE100A02F0C8FB75
:1037100041EC100B76489038FFF784FDB0EE408AFC
:10372000F0EE608A606902F0BBFB53EC182B39E0C5
:10373000FFF778FDB0EE408AF0EE608AA06902F0F3
:10374000AFFB53EC182BB0E004E043E046E054E05C
:1037500060E067E0607800288FD1A078A0B350E0E7
:103760006248FFF723F84CE0A07870BB6423012285
:1037700061A13BE0257094ED030AB1EE400A10EE22
:10378000100A02F08DFB41EC100B59489038FFF7FE
:1037900049FDB0EE408AF0EE608A606902F080FB7D
:1037A00053EC182B02F0ECF802F0B8F8606194EDDD
:1037B000040AB1EE400A10EE100A02F071FB41EC6F
:1037C000100B4B486038B3E700E012E0642301229D
:1037D0004AA1C5E760780028C6D07CE06078002860
:1037E00079D1A07828B96423012244A13F48FEF78B
:1037F000DDFF20780128BDD06DE06078E8BBA078BF
:1038000020B1207801283FF47AAF64E064230122DC
:1038100039A1A5E7607880BBA07868B9642301224C
:1038200036A106E0607840BBA07828B96423012265
:1038300031A12E48FEF7BAFF207801284BD1257020
:1038400094ED030AB1EE400A10EE100A02F028FBD4
:1038500041EC100B26489038FFF7E4FCB0EE408AAC
:10386000F0EE608A606902F01BFB53EC182B02F04B
:1038700087F802F053F8606100E02CE094ED040A50
:10388000B1EE400A10EE100A02F00AFB41EC100BF8
:1038900017486038FFF7C6FCB0EE408AF0EE608A49
:1038A000A06902F0FDFA53EC182B02F069F802F05F
:1038B00035F800EE100A84ED060AD4ED050AFCEE98
:1038C000E00A10EE900A80B23060BCEEC00A10EE42
:1038D000100A80B238600A2000F052FDB2E6000003
:1038E000000000203C040040310000006807002078
:1038F0005C010020320000003400000033000000B2
:103900002DE9F04341488BB00068C16841F01001D7
:10391000C160FF223E493D48FEF730FF3D4E3C4C22
:103920003D4D4FF0FF39371F4FF001084946A86B56
:1039300000F07CFD2078122808D1002137A208462B
:10394000FFF730FCB4F8010040BA3060207813284B
:1039500008D1002131A20846FFF724FCB4F8010089
:1039600040BA38602078A12840D1E879204410F886
:10397000010C1A283AD16078112806D033280ED0CD
:1039800044280FD002281BD030E0E878012803D16A
:10399000386828813068688185F8018026E085F8DC
:1039A000028023E0A8791EA1401CC2B2AA71684619
:1039B000FCF736FD00216A460846FFF7F3FB15E0E9
:1039C000A0780128E07815D000EE100AB8EE400A81
:1039D00085ED030A20790128607911D000EE100AE4
:1039E000B8EE400A85ED040A85F80080012000F059
:1039F000C7FC9BE7404200EE100AB8EEC00AE7E7BA
:103A0000404200EE100AB8EEC00AEBE7680700205B
:103A1000BC01002040040040000000206F6B00004B
:103A2000706F696E745F6E756D25640010B50A2045
:103A300000F0A6FCFBE7000010B5502080F31188D1
:103A4000BFF34F8FBFF36F8F01F0D4FD18B104495E
:103A50004FF080500860002080F3118810BD0000F6
:103A600004ED00E030B593B030216846FCF7D3FD9B
:103A700014210CA8FCF7CFFD1D480025016841F07A
:103A800080510160006800F0805011901948016871
:103A900041F4804101600068022400F480401190EC
:103AA00001200090000401908001CDE9064008AAA1
:103AB0000420A82182E813000B906846FDF794FCCF
:103AC00008B172B6FEE70CA90F2081E831004FF46F
:103AD000A0500F904FF48050109005210CA8FDF7D6
:103AE00079FB002801D072B6FEE713B030BD0000AC
:103AF00040380240007000400248016841F4700103
:103B00000160704788ED00E00148FEF7D5B900007C
:103B1000CC0800200148FEF7CFB900009406002031
:103B2000F0B50268254C264D264E274F274B4FF007
:103B3000804CA04209D0604507D0A84205D0B042D1
:103B400003D0B84201D0984204D122F0700E4A68E6
:103B500042EA0E02A0421BD0604519D0A84217D0FD
:103B6000B04215D0B84213D0984211D0184DA84297
:103B70000ED0184DA8420BD0174DA84208D0174DB3
:103B8000A84205D0164DA84202D0164DA84203D136
:103B900022F44075CA682A434D6922F080022A4304
:103BA00002608A68C2620A688262A04201D09842BA
:103BB00001D10969016301214161F0BD00000140AB
:103BC0000004004000080040000C004000040140D8
:103BD00000400140004401400048014000180040FE
:103BE000001C00400020004010B501F01F0301211F
:103BF000046A99408C430462016A9A40114301624D
:103C000010BD10B5846842EA032224F47F440A43BD
:103C10002243826010BD826822F070020A4342F0A3
:103C20000701816070470000F0B5026A22F00102CE
:103C30000262036A42688469124E24F073050C68BC
:103C40002C4323F002058B682B430D4DA84201D075
:103C5000B04205D123F00807CB683B4323F00403AF
:103C6000A84201D0B04205D14D6922F440721543FB
:103C70008A692A4342608461496841630362F0BDF6
:103C80000000014000040140F0B5026A22F0100279
:103C90000262026A436884690D6824F4E64444EAD7
:103CA00005248D6822F0200242EA05120F4D104EC5
:103CB000A84201D0B04206D1CF6822F0800242EA89
:103CC000071222F04002A84201D0B04207D14D694C
:103CD00023F4406343EA85038D6943EA8503436027
:103CE0008461496881630262F0BD00000000014008
:103CF00000040140F0B5026A22F480720262026A96
:103D00004368C46922F4007224F073050C68124EF3
:103D10002C438D6842EA05220E4DA84201D0B042E4
:103D200006D1CF6822F4006242EA072222F48062C0
:103D3000A84201D0B04207D14D6923F4405343EA71
:103D400005138D6943EA05134360C4614968C16383
:103D50000262F0BD000001400004014030B5026A7B
:103D600022F480520262046A4268C3690D6823F437
:103D7000E64343EA05238D6824F4005444EA0534FD
:103D8000084DA84202D0084DA84204D14D6922F442
:103D9000804242EA85124260C3614968016404625C
:103DA00030BD0000000001400004014010B5036A6E
:103DB000046A24F001040462846924F0F00444EAF3
:103DC000021423F00A020A438461026210BD10B596
:103DD000036A23F0100303628369046A23F47043C7
:103DE00043EA023224F0A00343EA01118261016236
:103DF00010BD10B5806B0021C185C184FEF790FA1B
:103E000010BD70B5846B2068406994F83D10C0F314
:103E1000C0100025212904D118B1E584204600F006
:103E20008AF82068406994F83E10C0F38010222977
:103E300004D118B1E585204600F056F8206C40F01A
:103E4000100020642046FEF76BFA70BD10B50146E5
:103E5000806B09680968C9052FD40021C1850168F4
:103E60000C3151E8002F22F4807241E80023002B2E
:103E7000F5D10168143151E8002F22F0010241E828
:103E80000023002BF5D10168143151E8002F22F0F6
:103E9000400241E80023002BF5D1202180F83E109C
:103EA000016B012909D101680C3151E8002F22F082
:103EB000100241E80023002BF5D1016B012902D04B
:103EC000FEF771FC10BD818DFEF7F1F910BD10B544
:103ED000806B016B012902D0FEF766FC10BD818D5D
:103EE0004908FEF7E4F910BD01680C3151E8002FD4
:103EF00022F4907241E80023002BF5D101681431BF
:103F000051E8002F22F0010241E80023002BF5D1F7
:103F1000016B012909D101680C3151E8002F22F011
:103F2000100241E80023002BF5D1202180F83E103B
:103F300000210163704701680C3151E8002F22F025
:103F4000C00241E80023002BF5D1202180F83D106C
:103F5000704708B590F83E10222901D0022008BD14
:103F600082684FF480539A4201D1016921B1816A7C
:103F70009A421BD04AB10AE00268816A5268C2F3D1
:103F800008020A80816A891C08E0026972B102682D
:103F9000526802F07F020A70816A491C8162C18DF9
:103FA000491E0904090CC18503D019E00268526852
:103FB000F1E70168CA6822F02002CA600168CA6895
:103FC00022F48072CA6001684A6922F001024A61E3
:103FD000202180F83E10016B012903D0FEF7E3FB9E
:103FE000002008BD0021016301680C3151E8002F59
:103FF00022F0100241E80023002BF5D101680A6885
:10400000D20602D50A6849680091818DFEF74FF902
:10401000E6E7000070B5044600680169E26821F433
:104020004051114301612169A068E2690843616957
:10403000114308432168CA6849F20C639A4302435A
:10404000CA6020684169A26921F44071114341614D
:1040500031492068884202D03049884202D1FDF7B8
:1040600083F901E0FDF770F9E26900231921642565
:104070003226B2F5004F626828D0A0FB0101930FF1
:104080009200FCF755F90146B0FBF5F06FF018020D
:10409000504301EB800006EB0010B0FBF5F000F0A0
:1040A000F002B1FBF5F002EB0012B1FBF5F06FF09E
:1040B0001803584301EB800006EB0010B0FBF5F04D
:1040C00000F00F0021681044886070BDA0FB010162
:1040D00092185B41FCF72CF90146B0FBF5F00201A8
:1040E000B1FBF5F06FF01803584301EB800006EBCD
:1040F000C000B0FBF5F000F0F80002EB4002B1FBAD
:10410000F5F0584301EB800006EBC000B0FBF5F082
:1041100000F00700D6E70000001001400014014045
:1041200038B5816282850025134604460564222045
:1041300084F83E00A26B1B48D063A26B1A4810643F
:10414000A26B1A48D064A06B0A4605652168A06B73
:10415000091DFCF73BFD206801684068009084F869
:104160003C5020680C3050E8001F41F4807140E85A
:104170000012002AF5D12068143050E8001F41F0E9
:10418000010140E80012002AF5D12068143050E8FF
:10419000001F41F0400140E80012002AF5D1002044
:1041A00038BD00004D3E0008CF3E0008033E000829
:1041B0002DE9F041984617460E460446069D27E035
:1041C000681C25D02DB1FCF74DFEA0EB0800A842DD
:1041D0001ED920680C3050E8001F21F4D07140E84F
:1041E0000012002AF5D12068143050E8001F21F099
:1041F000010140E80012002AF5D1202084F83D009A
:1042000084F83E00002084F83C000320BDE8F081E3
:104210002068006836EA000004D00020B842CFD001
:104220000020F3E70120F9E70148FEF77BB8000022
:104230002407002038B51148FEF774F80F4C2068A9
:104240000068C043C00618D42046FEF731F8206845
:104250000168406800900A48006840680949C0F158
:10426000FF00FF22087008492046FEF787FA07483A
:104270000068BDE8384000F0B1B838BD68070020DC
:104280006C08002007000020BC010020380000203E
:10429000FEE70907090E002804DB00F1E02080F8A2
:1042A0000014704700F00F0000F1E02080F8141DAA
:1042B0007047EFF30580002800D001207047000010
:1042C000FCF7D8FEFFF7CEFBFEF72AFCFEF7AEFCAC
:1042D000FEF7B2FDFEF722FDFEF72AFEFEF786FC92
:1042E000FEF752FDFEF768FBFEF782FDFEF7C2FC0B
:1042F000FEF73AFE00211948FDF76AFF042117482E
:10430000FDF766FF08211548FDF762FF0C211348F1
:10431000FDF75EFF08211248FDF75AFF0C211048F7
:10432000FDF756FF0F494FF4AF600860091D40F6D6
:10433000C410086004210C48FDF776FD04210B48E9
:10434000FDF772FDFEF75CFE012291030848FCF7C1
:1043500084FDFEF75FFB00F01DF8FEE7DC060020A1
:10436000BC0500203C0400404C0600200406002050
:104370000004024001460020842900D0C81C704778
:104380003221B0FBF1F010B500B9012000F070FC53
:10439000002010BD10B500F007FD002010BD38B59D
:1043A00043684BB1012909D1032000220090114636
:1043B000012000F000FE38BD012901D0002038BDE9
:1043C00003220021012000F0D5FD040004D00023C9
:1043D0001A46194600F066FE204638BD38B500245E
:1043E00005460094FFF765FF90B16946284600F046
:1043F00009FF012801D0FF2038BD009888B10A4983
:104400004FF080500860BFF34F8FBFF36F8F08E00D
:1044100000231A461946284600F044FE012800D021
:10442000FF24204638BD000004ED00E038B505004B
:104430004FF00000009008D00024481C07D051B174
:104440003220B1FBF0F42CB105E0802038BD4FF0F4
:10445000FF3400E00124FFF72CFF88B16A460021F9
:10446000284600F01DFF012810D1009880B10949AD
:104470004FF080500860BFF34F8FBFF36F8F07E09E
:104480002146284600F05AFF012801D0FF2038BD00
:10449000002038BD04ED00E07FB50D4604464169BB
:1044A000B0F9080081B1A16971B1FFF763FFD4E9E8
:1044B00005128DE80700D4E900102B46226901F0AF
:1044C00060F8039004B070BDFFF754FF03A9CDE975
:1044D0000001208A2B4682B2D4E9001001F024F8B2
:1044E000012801D00020EDE70398EBE72DE9F0412A
:1044F000184C0F460546E6682068001D00F0C6FA15
:1045000038B9206890F82C10012088402169814337
:104510002161681C07D137B12168BDE8F0410E4820
:10452000091D00F0F7BA20683544B542456021689E
:1045300005D2A06BBDE8F041091D00F0D3BA606B55
:10454000091D00F0CFFAA06A854200D2A562BDE83D
:10455000F081000060000020F00900202DE9F0410A
:10456000054600F0E3FA2E4CA068401CA0602068CD
:104570002C4F10B1606940B32DE02560A068012880
:1045800029D1002606EB860007EB800000F09CFA9C
:10459000761C072EF6D323488C3000F095FA21487C
:1045A000A03000F091FA1F48B43000F08DFA1D4899
:1045B000C83000F089FA1B48DC3000F085FA194851
:1045C0008C3060631430A06305E02068E96AC06A3B
:1045D000884200D82560606A401C6062E96A012058
:1045E000226988401043206101EB810007EB8000C5
:1045F000291D00F08FFA00F0B9FA606900280CD08C
:104600002068E96AC06A884207D207494FF08050A3
:104610000860BFF34F8FBFF36F8FBDE8F0810000DC
:10462000600000201409002004ED00E030B4026CAA
:104630000B46002A0BD0C1681144C1608468A142B6
:1046400001D30168C16030BC1846FBF76DBF30BCB8
:1046500070472DE9F041856B174604460026026C31
:1046600082B1C7B1E068FBF75FFFE168206C091A0F
:10467000E1602268914202D2A168081AE060022F2C
:1046800016D017E02068A8B9A06801F019F806460E
:104690000020A0600EE06068FBF746FF216C6068B8
:1046A00008446060A168884204D32068606001E02B
:1046B00005B16D1E6D1CA5633046BDE8F08110B5D7
:1046C000044690F8510058B101280CD002280FD0B0
:1046D000502080F31188BFF34F8FBFF36F8FFEE739
:1046E000206B00F057FA2046BDE8104000F052BAA7
:1046F00010BD000010484FF47051420706D0C01D95
:104700000D4920F00700411AC1F570510B4A0023F2
:104710000144C2E900030839183A21F00701116089
:104720004B600B600B1AC0E9001393604FF0004020
:104730005360506170470000040A0020B40000205C
:10474000144E154CA6F1C8074FF08058DFF84C9076
:1047500012E000BF00F0EAF9F068C568281D00F01B
:1047600095F9A068401EA0606068401E606000F07F
:10477000FDF92846FFF7A3FF60680028EAD13868F2
:104780000128F9D9C9F80080BFF34F8FBFF36F8FAD
:10479000F2E70000DC0900206000002004ED00E0EA
:1047A0000346009829B10260C0E90F31012100F0F1
:1047B00035BC0060F8E72DE9F0479A46DDE9098449
:1047C00081466FF00303206B03EB82021044089EC6
:1047D00020F00707780707D0502080F31188BFF337
:1047E0004F8FBFF36F8FFEE7002561B100202318C4
:1047F0000A5C83F834200A5C12B1401C1028F6D3FE
:1048000084F8435001E084F83450072E00D3062684
:10481000E662C4E91165201D00F061F904F1180099
:1048200000F05DF92461C6F107006462A061E564EF
:1048300084F8505052464946384600F011F920603D
:10484000B8F1000F01D0C8F80040BDE8F0870000C3
:1048500030B5114900E011460A688242FBD34B682B
:104860005C18844203D14068184448600846436895
:104870001C18944209D1084C183C2468A24209D063
:1048800052681A4442600A6812680260814200D08D
:10489000086030BD0460F9E7B400002010B504469C
:1048A00000F044F9A06B28B15FF0000400F05EF95D
:1048B000204610BD0124F9E70648416B096829B17B
:1048C000416BC968C9684968816270474FF0FF3120
:1048D000FAE700006000002008484068401C4FF0E4
:1048E000500080F3118804D0BFF34F8FBFF36F8F58
:1048F000FEE7BFF34F8FBFF36F8FFEE7BC000020D2
:104900002DE9F041044600F011F994F9455004F105
:10491000240609E0606A48B1304600F063FF08B140
:1049200000F0D4F96D1E6DB2002DF3DC4FF0FF36B0
:1049300084F8456000F01AF900F0F8F894F9445052
:1049400004F1100709E0206948B1384600F04AFF39
:1049500008B100F0BBF96D1E6DB2002DF3DC84F8D8
:104960004460BDE8F04100F001B900002DE9F041DC
:104970000546002700F04EFA324E306808B9FFF7BE
:10498000B9FE706905424ED1C5B3083568070ED02F
:1049900005F00700C0F108000544680707D0502063
:1049A00080F31188BFF34F8FBFF36F8FFEE72DB3F6
:1049B0007068854237D82348183001460C6801E0FA
:1049C00020460C466168A94202D221680029F7D12D
:1049D00031688C4227D00768216801606068083719
:1049E000411B10290FD96019420708D0502080F3CD
:1049F0001188BFF34F8FBFF36F8FFEE713E0416065
:104A00006560FFF725FF61687068401A7060B268E2
:104A1000904200D2B060706901430020C4E90001F7
:104A2000F068401CF06000F017FF780707D05020B6
:104A300080F31188BFF34F8FBFF36F8FFEE73846C7
:104A4000BDE8F0819C0000200449086818B108689E
:104A5000826C521C8264086870470000600000206D
:104A600010B5031F4FF080741C601B1F21F0010163
:104A70001960191F044B0B6014390A60091F6FF08D
:104A8000020244380A6010BDD9480008D0E901325A
:104A900001699A60D0E901235A604A68824201D1D3
:104AA00082684A60002202610868401E0860086847
:104AB00070470000034B036003F15400086080203E
:104AC00010607047BC02002000F108014FF0FF3277
:104AD000C0E90112C160016100210160704700213D
:104AE0000161704730B50B685A1C02D000F1080212
:104AF00002E0026904E02246546825689D42FAD922
:104B000053684B6099608A60516008610168491C74
:104B1000016030BD42684A6093688B609368596059
:104B2000916008610168491C01607047502080F362
:104B30001188BFF34F8FBFF36F8F0A494868401C3D
:104B4000486001280CD10848006810F0FF0F07D01A
:104B5000502080F31188BFF34F8FBFF36F8FFEE7B4
:104B600070470000BC00002004ED00E008494868E0
:104B700028B1401E486001D180F311887047502051
:104B800080F31188BFF34F8FBFF36F8FFEE70000F4
:104B9000BC00002070B500282AD0164DA0F10804F2
:104BA00060686969084207D1502080F31188BFF31B
:104BB0004F8FBFF36F8FFEE722683AB1502080F32A
:104BC0001188BFF34F8FBFF36F8FFEE7884360609C
:104BD00000F020F960686968084468602046FFF7C3
:104BE00037FE2869401C2861BDE8704000F034BEE3
:104BF00070BD00009C0000204FF0E020002101610A
:104C00008161054914220968B1FBF2F1491E416135
:104C100007210161704700005C00002010B5FBF720
:104C200063FB114910280ED300F1E02090F8F00347
:104C30000A78904207D2502080F31188BFF34F8F3B
:104C4000BFF36F8FFEE709480068896800F4E060F1
:104C5000884207D9502080F31188BFF34F8FBFF3EC
:104C60006F8FFEE710BD0000BC0000200CED00E0DF
:104C700010B5020014D00F48006B38B1502080F3FB
:104C80001188BFF34F8FBFF36F8FFEE700F0C2F8BC
:104C900000211046FFF72AFC00F0DEFD002807D1B6
:104CA00005494FF080500860BFF34F8FBFF36F8FFF
:104CB00010BD00006000002004ED00E002490A6A17
:104CC0000260C9684160704760000020014901200E
:104CD000C86170476000002010B50C4650B109490A
:104CE00009681831FFF7FEFE2046BDE8104001219B
:104CF000FFF7FCBB502080F31188BFF34F8FBFF349
:104D00006F8FFEE76000002070B5040047D0A26CF2
:104D1000A2B1606C884200D30146E06A88423ED06E
:104D2000012A3CD11E4D2A6894420FD1502080F3B5
:104D30001188BFF34F8FBFF36F8FFEE7502080F3D2
:104D40001188BFF34F8FBFF36F8FFEE7E162A26957
:104D5000002A02DBC1F10701A161124E00EB8000C5
:104D6000616906EB8000814219D1201DFFF78EFE9C
:104D7000012130B994F82C002A6901FA00F082432D
:104D80002A61E06A2A6981401143296100EB8000B1
:104D900006EB8000211DBDE87040FFF7BBBE70BD73
:104DA000600000201409002010B586B00024039490
:104DB00005AA04A903A80494FFF77CFEDDE903011A
:104DC0000094CDE9011000230EA11048059A00F0CF
:104DD000D8FB0F490028C86211D0502080F31188F9
:104DE000BFF34F8FBFF36F8F4FF0FF30886201200A
:104DF0004861CC6006B0BDE8104000F041B806B094
:104E000010BD000049444C45000000004147000827
:104E1000600000200248016B491C016370470000DC
:104E2000600000201448016B11B10121C16170477D
:104E30000021C1610169B1FA81F1C1F11F0101EBEA
:104E400081020E4951F822306BB101EB820101F170
:104E500008034A6852684A609A4201D152684A601F
:104E6000D16801607047502080F31188BFF34F8FE5
:104E7000BFF36F8FFEE700006000002014090020E0
:104E80001CB537480168374A914207D1502080F35A
:104E90001188BFF34F8FBFF36F8FFEE70068314972
:104EA000491E884207D1502080F31188BFF34F8FED
:104EB000BFF36F8FFEE72C4908780190FF20087040
:104EC00008788DF800009DF800009DF8002000F0A3
:104ED000F000904207D0502080F31188BFF34F8F2D
:104EE000BFF36F8FFEE79DF80000204C00F05000EC
:104EF00020700720A06005E09DF8002052008DF88A
:104F00000020401E9DF800201206F5D4A060032862
:104F100007D0502080F31188BFF34F8FBFF36F8FFE
:104F2000FEE74FF44070A060019808700C482030F4
:104F3000016841F470010160016841F07041016055
:104F4000FFF75AFE00206060FBF796F908480168F9
:104F500041F040410160FBF77BF900201CBD0000DF
:104F600000ED00E071C20F4100E400E0BC00002051
:104F700034EF00E0F8B517460E46050013D005FBE8
:104F800006F04830FFF7F2FC04000AD0002084F855
:104F9000460004F148023B46314628460094FFF79C
:104FA000FFFB2046F8BD502080F31188BFF34F8FE0
:104FB000BFF36F8FFEE738B5049D18B153B1CAB186
:104FC00081B120E0502080F31188BFF34F8FBFF3F1
:104FD0006F8FFEE7502080F31188BFF34F8FBFF330
:104FE0006F8FFEE7502080F31188BFF34F8FBFF320
:104FF0006F8FFEE739B1502080F31188BFF34F8FD8
:10500000BFF36F8FFEE748241C46012384F8463027
:105010002B460094FFF7C4FB204638BD70B50D4603
:10502000040025D0FFF782FDD4E90F20216802FBA0
:105030000011A1600021A163216861600A46D4E9E2
:105040000F01401E00FB0121E16021464FF0FF30BF
:1050500001F8440F487004F110008DB1FFF734FDE2
:1050600004F12400FFF730FDFFF780FD012070BD43
:10507000502080F31188BFF34F8FBFF36F8FFEE78F
:1050800021690029F0D000F0ADFB0028ECD00449E4
:105090004FF080500860BFF34F8FBFF36F8FE3E78F
:1050A00004ED00E02DE9FF4782B01D468A464FF02F
:1050B0000008040003D0BAF1000F08D011E050201E
:1050C00080F31188BFF34F8FBFF36F8FFEE7206C23
:1050D00038B1502080F31188BFF34F8FBFF36F8F2B
:1050E000FEE7022D0AD1E06B012807D0502080F3A3
:1050F0001188BFF34F8FBFF36F8FFEE700F06CFA9C
:105100003F4F4FF000094FF0805648B9049838B12E
:10511000502080F31188BFF34F8FBFF36F8FFEE7EE
:10512000FFF704FDA06BE16B884207D3022D05D089
:105130000498D0B1B8F1000F1AD01EE02A465146AB
:105140002046FFF786FA616A19B104F1240000F0E5
:1051500049FB20B13E60BFF34F8FBFF36F8FFFF766
:1051600005FD012006B0BDE8F087FFF7FFFC22E057
:105170006846FFF7A3FD4FF00108FFF7F7FCFFF7C4
:1051800049FEFFF7D3FC94F94400401C01D184F898
:10519000449094F94500401C01D184F84590FFF7F4
:1051A000E5FC04A9684600F085F930B12046FFF718
:1051B000A7FB00F051FB0020D4E7FFF7B7FCA06B82
:1051C000E16B884213D1FFF7D1FC04F11000049980
:1051D000FFF782FD2046FFF793FB00F03DFB002820
:1051E0009ED13E60BFF34F8FBFF36F8F98E7FFF7FD
:1051F000BDFC2046FFF784FB00F02EFB90E700008B
:1052000004ED00E070B50E46040009D0206C78B1C2
:10521000502080F31188BFF34F8FBFF36F8FFEE7ED
:10522000502080F31188BFF34F8FBFF36F8FFEE7DD
:10523000206848B9A06838B1502080F31188BFF3C6
:105240004F8FBFF36F8FFEE7FFF7E8FC5020EFF3BF
:10525000118580F31188BFF34F8FBFF36F8FA16B60
:10526000E06B884218D994F94500491CA163411CA0
:1052700004D0401C84F8450001200EE0606A00283C
:10528000FAD004F1240000F0ADFA0028F4D0002E8A
:10529000F2D001203060EFE7002085F3118870BD67
:1052A0002DE9F04790468946040003D0B9F1000F7C
:1052B00008D011E0502080F31188BFF34F8FBFF367
:1052C0006F8FFEE7206C38B1502080F31188BFF358
:1052D0004F8FBFF36F8FFEE7FFF7A0FC5020EFF377
:1052E000118680F31188BFF34F8FBFF36F8FA76BC9
:1052F000F7B194F9445049462046FFF797F97F1ECD
:10530000A763681C04D06D1C84F84450012010E091
:1053100020690028FAD004F1100000F063FA002898
:10532000F4D0B8F1000FF1D00121C8F80010EDE77A
:10533000002086F31188BDE8F08700002DE9F343D3
:10534000002683B00400354609D0206C78B1502087
:1053500080F31188BFF34F8FBFF36F8FFEE75020AC
:1053600080F31188BFF34F8FBFF36F8FFEE700F01C
:1053700033F9DFF83C814FF000094FF0805748B90E
:10538000049838B1502080F31188BFF34F8FBFF3DA
:105390006F8FFEE7FFF7CAFBA06BC8B1401EA0638A
:1053A000206810B9FFF750FBA060206950B104F1EC
:1053B000100000F017FA28B1C8F80070BFF34F8F43
:1053C000BFF36F8FFFF7D2FB012005B0BDE8F0837C
:1053D000049808B166B10FE03DB1502080F3118808
:1053E000BFF34F8FBFF36F8FFEE7FFF7BFFB5DE0AB
:1053F0006846FFF763FC0126FFF7B8FBFFF70AFDDD
:10540000FFF794FB94F94400401C01D184F84490C8
:1054100094F94500401C01D184F84590FFF7A6FBA4
:1054200004A9684600F046F80028204612D0FFF78D
:1054300067FA00F011FA2046FFF730FA0028A9D0E9
:105440009DB3FFF773FB606A50B3206B0068C0F137
:10545000070126E0FFF722FAE0B1206838B9FFF72C
:1054600065FBA06800F078F90546FFF77FFB04F1C3
:1054700024000499FFF730FC2046FFF741FA00F0C2
:10548000EBF9002886D1C8F80070BFF34F8FBFF347
:105490006F8F7FE72046FFF733FA00F0DDF979E7F9
:1054A0000021A068FFF730FC9FE7FFE700208CE7B2
:1054B00004ED00E02DE9F0410C46050011D0C4B127
:1054C000FFF734FB174BDA686E682068911B471CA6
:1054D00017D02F681B6A9F4219D0964217D8012413
:1054E00010E0502080F31188BFF34F8FBFF36F8F10
:1054F000FEE7502080F31188BFF34F8FBFF36F8F0B
:10550000FEE70024FFF732FB2046BDE8F081884229
:1055100005D9401A20602846FFF7D0FBF1E70020AC
:105520002060DCE7600000202DE9FF5F8346DDE9B5
:105530000E87994616468A469000FFF717FA05002F
:105540001CD05420FFF712FA040014D00020256369
:1055500084F85100CDE90240CDE900874B46324640
:1055600051465846FFF727F92046FEF7F7FF01207E
:1055700004B0BDE8F09F2846FFF70CFB4FF0FF306A
:10558000F6E7F0B585B0DDE90B640A9DA6B1DCB1A4
:10559000542700972663022684F85160002604AF42
:1055A000CDE90246CDE90057FFF705F92046FEF7A1
:1055B000D5FF049805B0F0BD502080F31188BFF3EB
:1055C0004F8FBFF36F8FFEE7502080F31188BFF33A
:1055D0004F8FBFF36F8FFEE70548416919B1006B2C
:1055E00018B100207047012070470220704700006A
:1055F000600000202DE9F0412F4C0026206B28B1DF
:10560000A069401CA0613046BDE8F081E5686D1CD2
:10561000E56013D1606B006838B1502080F31188C9
:10562000BFF34F8FBFF36F8FFEE7606BA16B6163BA
:10563000A063206A401C2062FFF73EF9A06ADFF8F1
:105640007C80854209D3606B0068A0B1606BC06844
:10565000C7687868854211D2A0622068C06A00EBF2
:10566000800158F82100012800D90126E0690028AE
:10567000C9D00126C7E74FF0FF30EDE7381DFFF72F
:1056800005FAB86A18B107F11800FFF7FFF9F96ACF
:105690000120226988401043206101EB810108EB61
:1056A0008100391DFFF736FAF86A2168C96A884215
:1056B000C9D30126C7E700006000002014090020BC
:1056C00070B504004FF0000140D0214D286884429D
:1056D00007D0502080F31188BFF34F8FBFF36F8F37
:1056E000FEE7A06C38B1401EA064636CE26A9A4287
:1056F0002CD040B12AE0502080F31188BFF34F8FA7
:10570000BFF36F8FFEE7201DFFF7C0F9114A01219B
:1057100050B9E06A00EB800352F8233023B92B69BB
:1057200001FA00F083432B61606CE062C0F1070076
:10573000A061E06A2B6981401943296100EB800078
:1057400002EB8000211DFFF7E5F90121084670BD3D
:10575000600000201409002070B504004FF0000024
:1057600034D01E4DE16A2A68D26A91422FD2A069D4
:10577000002804DB2868C06AC0F10700A061184E49
:1057800001EB8101606906EB810188421AD1201D7D
:10579000FFF77CF9012130B994F82C002A6901FA4D
:1057A00000F082432A612868C06AE0622A69814069
:1057B0001143296100EB800006EB8000211DFFF7FB
:1057C000A9F902E02868C06AE062012070BD616C3E
:1057D0002A68D26A9142F8D370BD000060000020B0
:1057E000140900202DE9F041C068C468ACB104F18F
:1057F00018000746FFF74AF9154D286B0126A0B19E
:1058000039461448FFF786F9E06A2968C96A884270
:105810001CD90120EE61BDE8F081502080F3118891
:10582000BFF34F8FBFF36F8FFEE7201DFFF72EF9F9
:10583000E16A2A6906FA01F01043286101EB810050
:105840000449B43901EB8000211DDBE70020E2E7C9
:1058500060000020C80900202DE9F0472C4D0024ED
:105860002746286B38B1FFF761F9286B401E286383
:10587000286B40B146E0502080F31188BFF34F8F72
:10588000BFF36F8FFEE7A968224E0120D1B3A6F1C6
:10589000B40980463068E8B1F068C46804F11800C3
:1058A000FFF7F4F8201DFFF7F1F8E06A2A6908FA1B
:1058B00000F11143296100EB800109EB8100211DFA
:1058C000FFF728F9E06A2968C96A8842E2D3C5F877
:1058D0001C80DFE70CB1FEF7EFFFAC6944B1464630
:1058E000FFF788FE00B1EE61641EF9D10020A861C7
:1058F000E86938B10849012738070860BFF34F8FBE
:10590000BFF36F8FFFF732F93846BDE8F08700002C
:1059100060000020C809002004ED00E021F00042F2
:10592000A2F16052B2F5801F01F0004328BFD2F10E
:105930007F6C0BD95FEA001C43EAC20242EB507055
:1059400018BF704728BF20F001007047B2F5801FD4
:10595000BCBF184670474FEA410C1CF5001F02D22D
:10596000084600F013BB70B500F05CF90000008938
:10597000FFF7F6BF4FF00040A0F580007047000031
:1059800010B591EA030F48BF83F0004300F1A681F0
:10599000841A71EB030C05D2121943EB0C03001BA4
:1059A00061EB0C01DFF824E14FEA1154A4EB135C26
:1059B0001EEA430F18BF9EEA445F73D023EA0E032A
:1059C000DCF1200E21EA045143F4801332D322FA91
:1059D0000CFE10EB0E0023FA0CFE41EB0E01CCF195
:1059E000200E03FA0EFE10EB0E0051F10001B1F58E
:1059F000801FCCF1200E32D201EB045112FA0EF2CC
:105A0000BDE8104058BF7047401C38BF5FEA4202F3
:105A100018BF7047002814BF20F0010041F10001B9
:105A20004FEA410313F5001F38BF7047A1F1C04191
:105A300000F046B9012A43EB0302ACF1200CDCF183
:105A40001F0E32BF4FF0000E23FA0CF310EB0300D1
:105A500041EB0451B4EB115FD0D0A1EB045101F53F
:105A6000801149085FEA300001EB04510ED350F178
:105A7000000038BF12FA0EFE08D1BDE81040C9E799
:105A8000401C38BF5FEA4202CAD1C3E7BDE81040FC
:105A90004FEA410313F5001F38BF7047A1F1C04121
:105AA00000F00EB99EEA445F08D011EA5E0FBDE82F
:105AB000104004BF01F0004100207047BDE81040D5
:105AC00070B500F0AFF800BF64FBBE3E0000E0FF21
:105AD000DFF848C170B51CEA111E1EBF1CEA131581
